:100000000C9434000C9451000C9451000C94510049
:100010000C9451000C9451000C9451000C9451001C
:100020000C9451000C9451000C9451000C9451000C
:100030000C9451000C9451000C9451000C945100FC
:100040000C9451000C9451000C9451000C945100EC
:100050000C9451000C9485000C9451000C945100A8
:100060000C9451000C94510011241FBECFEFD8E026
:10007000DEBFCDBF11E0A0E0B1E0EAEBF4E002C0EA
:1000800005900D92AE30B107D9F721E0AEE0B1E0B6
:1000900001C01D92AF30B207E1F70E942B010C9412
:1000A0005B020C9400001092C50087E68093C400A8
:1000B000E1ECF0E0808188618083808180688083CA
:1000C00086E08093C2000895ECE7F0E080818064D0
:1000D0008083EAE7F0E080818760808380818062AE
:1000E000808310927B00808180688083808188601B
:1000F00080838081806480830895E0ECF0E09081CB
:1001000095FFFDCF8093C60008951F920F920FB602
:100110000F921124CF92DF92EF92FF920F931F93D1
:100120002F933F934F935F936F937F938F939F93FF
:10013000AF93BF93EF93FF93CF93DF93CDB7DEB72A
:100140002D97DEBFCDBF8DE0E0E0F1E0DE0111963E
:1001500001900D928A95E1F7809178009091790055
:1001600080930E0160910E0170E080E090E00E94AB
:10017000620120E030E04AEF5EE30E94C6010E9487
:10018000310160930E01D0900E019DECD99ED12CCF
:1001900011248D2D8695869586950F2EF0E3DF2E02
:1001A000F02DD80E80910E01899F912D11249695E6
:1001B00096959695990F292F220F220F920F891B42
:1001C0000F2EF0E3CF2EF02DC80E8E010F5F1F4FC4
:1001D0007E012EE0E20EF11CF80181918F010E9458
:1001E0007D000E151F05C1F78D2D0E947D008C2D01
:1001F0000E947D0080EB0E947D0086E40E947D00CD
:100200008AE00E947D00FFEF23ED80E3F150204063
:100210008040E1F700C000002D960FB6F894DEBFD5
:100220000FBECDBFDF91CF91FF91EF91BF91AF9105
:100230009F918F917F916F915F914F913F912F91FE
:100240001F910F91FF90EF90DF90CF900F900FBE16
:100250000F901F9018950E9453000E94640078949C
:10026000FFCF0E94A50188F09F5798F0B92F9927DA
:10027000B751B0F0E1F0660F771F881F991F1AF091
:10028000BA95C9F714C0B13091F00E94BF01B1E036
:1002900008950C94BF01672F782F8827B85F39F035
:1002A000B93FCCF3869577956795B395D9F73EF42A
:1002B00090958095709561957F4F8F4F9F4F0895D2
:1002C000E89409C097FB3EF49095809570956195F0
:1002D0007F4F8F4F9F4F9923A9F0F92F96E9BB27A6
:1002E0009395F695879577956795B795F111F8CF22
:1002F000FAF4BB0F11F460FF1BC06F5F7F4F8F4F8D
:100300009F4F16C0882311F096E911C0772321F082
:100310009EE8872F762F05C0662371F096E8862F1A
:1003200070E060E02AF09A95660F771F881FDAF771
:10033000880F9695879597F9089557FD9058440F23
:10034000551F59F05F3F71F04795880F97FB991F34
:1003500061F09F3F79F087950895121613061406F1
:10036000551FF2CF4695F1DF08C01616170618067E
:10037000991FF1CF86957105610508940895E89459
:10038000BB2766277727CB0197F908950E94D901EB
:100390000C944A020E943C0238F00E94430220F072
:1003A000952311F00C9433020C94390211240C940F
:1003B000C0010E949D0170F3959FC1F3950F50E01D
:1003C000551F629FF001729FBB27F00DB11D639F07
:1003D000AA27F00DB11DAA1F649F6627B00DA11DAD
:1003E000661F829F2227B00DA11D621F739FB00D53
:1003F000A11D621F839FA00D611D221F749F3327C3
:10040000A00D611D231F849F600D211D822F762F5B
:100410006A2F11249F5750409AF0F1F088234AF038
:10042000EE0FFF1FBB1F661F771F881F91505040A4
:10043000A9F79E3F510580F00C9433020C94C00143
:100440005F3FE4F3983ED4F3869577956795B7952B
:10045000F795E7959F5FC1F7FE2B880F911D969545
:10046000879597F9089597F99F6780E870E060E0B5
:1004700008959FEF80EC089500240A94161617063D
:1004800018060906089500240A9412161306140685
:1004900005060895092E0394000C11F4882352F0E8
:1004A000BB0F40F4BF2B11F460FF04C06F5F7F4FA0
:0A04B0008F4F9F4F0895F894FFCF7F
:0E04BA0054656D70657261747572653A20004C
:00000001FF
